{
  "_format": "hh-sol-artifact-1",
  "contractName": "Products",
  "sourceName": "contracts/Products.sol",
  "abi": [
    {
      "anonymous": false,
      "inputs": [
        {
          "indexed": false,
          "internalType": "uint256",
          "name": "orderId",
          "type": "uint256"
        },
        {
          "indexed": false,
          "internalType": "address",
          "name": "buyer",
          "type": "address"
        },
        {
          "indexed": false,
          "internalType": "address",
          "name": "seller",
          "type": "address"
        },
        {
          "indexed": false,
          "internalType": "uint256",
          "name": "price",
          "type": "uint256"
        }
      ],
      "name": "OrderCreated",
      "type": "event"
    },
    {
      "anonymous": false,
      "inputs": [
        {
          "indexed": false,
          "internalType": "uint256",
          "name": "orderId",
          "type": "uint256"
        }
      ],
      "name": "OrderDelivered",
      "type": "event"
    },
    {
      "anonymous": false,
      "inputs": [
        {
          "indexed": false,
          "internalType": "uint256",
          "name": "orderId",
          "type": "uint256"
        }
      ],
      "name": "OrderRefunded",
      "type": "event"
    },
    {
      "inputs": [
        {
          "internalType": "string",
          "name": "_name",
          "type": "string"
        },
        {
          "internalType": "string",
          "name": "_category",
          "type": "string"
        },
        {
          "internalType": "string[]",
          "name": "_imageLink",
          "type": "string[]"
        },
        {
          "internalType": "string",
          "name": "_descLink",
          "type": "string"
        },
        {
          "internalType": "uint256",
          "name": "_price",
          "type": "uint256"
        },
        {
          "internalType": "string",
          "name": "_location",
          "type": "string"
        },
        {
          "internalType": "uint256",
          "name": "_maxQuantity",
          "type": "uint256"
        },
        {
          "internalType": "uint256",
          "name": "_refundTimeLimit",
          "type": "uint256"
        }
      ],
      "name": "addProduct",
      "outputs": [
        {
          "internalType": "uint256",
          "name": "",
          "type": "uint256"
        }
      ],
      "stateMutability": "nonpayable",
      "type": "function"
    },
    {
      "inputs": [
        {
          "internalType": "address",
          "name": "",
          "type": "address"
        }
      ],
      "name": "addressToSingleProduct",
      "outputs": [
        {
          "internalType": "string",
          "name": "name",
          "type": "string"
        },
        {
          "internalType": "string",
          "name": "category",
          "type": "string"
        },
        {
          "internalType": "string",
          "name": "descLink",
          "type": "string"
        },
        {
          "internalType": "uint256",
          "name": "price",
          "type": "uint256"
        },
        {
          "internalType": "uint256",
          "name": "index",
          "type": "uint256"
        },
        {
          "internalType": "enum Products.OrderStatus",
          "name": "status",
          "type": "uint8"
        },
        {
          "internalType": "string",
          "name": "location",
          "type": "string"
        },
        {
          "internalType": "uint256",
          "name": "maxQuantity",
          "type": "uint256"
        },
        {
          "internalType": "address payable",
          "name": "owner",
          "type": "address"
        },
        {
          "internalType": "uint256",
          "name": "shippingFee",
          "type": "uint256"
        },
        {
          "internalType": "address",
          "name": "nftAddress",
          "type": "address"
        }
      ],
      "stateMutability": "view",
      "type": "function"
    },
    {
      "inputs": [
        {
          "internalType": "uint256",
          "name": "_orderId",
          "type": "uint256"
        }
      ],
      "name": "confirmDelivery",
      "outputs": [],
      "stateMutability": "nonpayable",
      "type": "function"
    },
    {
      "inputs": [],
      "name": "getAllOrder",
      "outputs": [
        {
          "components": [
            {
              "internalType": "uint256",
              "name": "orderId",
              "type": "uint256"
            },
            {
              "internalType": "address",
              "name": "buyer",
              "type": "address"
            },
            {
              "internalType": "address",
              "name": "seller",
              "type": "address"
            },
            {
              "internalType": "uint256",
              "name": "price",
              "type": "uint256"
            },
            {
              "internalType": "enum Products.OrderStatus",
              "name": "status",
              "type": "uint8"
            },
            {
              "internalType": "bool",
              "name": "isPaid",
              "type": "bool"
            },
            {
              "internalType": "bool",
              "name": "isFulfilled",
              "type": "bool"
            },
            {
              "internalType": "bool",
              "name": "isRefunded",
              "type": "bool"
            },
            {
              "internalType": "contract RefundEscrow",
              "name": "escrow",
              "type": "address"
            },
            {
              "internalType": "uint256",
              "name": "amount",
              "type": "uint256"
            },
            {
              "internalType": "address",
              "name": "nftAddress",
              "type": "address"
            }
          ],
          "internalType": "struct Products.Order[]",
          "name": "",
          "type": "tuple[]"
        }
      ],
      "stateMutability": "view",
      "type": "function"
    },
    {
      "inputs": [
        {
          "internalType": "address",
          "name": "_owner",
          "type": "address"
        }
      ],
      "name": "getProductByAddress",
      "outputs": [
        {
          "components": [
            {
              "internalType": "string",
              "name": "name",
              "type": "string"
            },
            {
              "internalType": "string",
              "name": "category",
              "type": "string"
            },
            {
              "internalType": "string[]",
              "name": "imageLink",
              "type": "string[]"
            },
            {
              "internalType": "string",
              "name": "descLink",
              "type": "string"
            },
            {
              "internalType": "uint256",
              "name": "price",
              "type": "uint256"
            },
            {
              "internalType": "uint256",
              "name": "index",
              "type": "uint256"
            },
            {
              "internalType": "enum Products.OrderStatus",
              "name": "status",
              "type": "uint8"
            },
            {
              "internalType": "string",
              "name": "location",
              "type": "string"
            },
            {
              "internalType": "uint256",
              "name": "maxQuantity",
              "type": "uint256"
            },
            {
              "internalType": "address payable",
              "name": "owner",
              "type": "address"
            },
            {
              "internalType": "uint256",
              "name": "shippingFee",
              "type": "uint256"
            },
            {
              "internalType": "address",
              "name": "nftAddress",
              "type": "address"
            }
          ],
          "internalType": "struct Products.Product[]",
          "name": "",
          "type": "tuple[]"
        }
      ],
      "stateMutability": "view",
      "type": "function"
    },
    {
      "inputs": [],
      "name": "getProductDetails",
      "outputs": [
        {
          "components": [
            {
              "internalType": "string",
              "name": "name",
              "type": "string"
            },
            {
              "internalType": "string",
              "name": "category",
              "type": "string"
            },
            {
              "internalType": "string[]",
              "name": "imageLink",
              "type": "string[]"
            },
            {
              "internalType": "string",
              "name": "descLink",
              "type": "string"
            },
            {
              "internalType": "uint256",
              "name": "price",
              "type": "uint256"
            },
            {
              "internalType": "uint256",
              "name": "index",
              "type": "uint256"
            },
            {
              "internalType": "enum Products.OrderStatus",
              "name": "status",
              "type": "uint8"
            },
            {
              "internalType": "string",
              "name": "location",
              "type": "string"
            },
            {
              "internalType": "uint256",
              "name": "maxQuantity",
              "type": "uint256"
            },
            {
              "internalType": "address payable",
              "name": "owner",
              "type": "address"
            },
            {
              "internalType": "uint256",
              "name": "shippingFee",
              "type": "uint256"
            },
            {
              "internalType": "address",
              "name": "nftAddress",
              "type": "address"
            }
          ],
          "internalType": "struct Products.Product[]",
          "name": "",
          "type": "tuple[]"
        }
      ],
      "stateMutability": "view",
      "type": "function"
    },
    {
      "inputs": [
        {
          "internalType": "uint256",
          "name": "",
          "type": "uint256"
        }
      ],
      "name": "orders",
      "outputs": [
        {
          "internalType": "uint256",
          "name": "orderId",
          "type": "uint256"
        },
        {
          "internalType": "address",
          "name": "buyer",
          "type": "address"
        },
        {
          "internalType": "address",
          "name": "seller",
          "type": "address"
        },
        {
          "internalType": "uint256",
          "name": "price",
          "type": "uint256"
        },
        {
          "internalType": "enum Products.OrderStatus",
          "name": "status",
          "type": "uint8"
        },
        {
          "internalType": "bool",
          "name": "isPaid",
          "type": "bool"
        },
        {
          "internalType": "bool",
          "name": "isFulfilled",
          "type": "bool"
        },
        {
          "internalType": "bool",
          "name": "isRefunded",
          "type": "bool"
        },
        {
          "internalType": "contract RefundEscrow",
          "name": "escrow",
          "type": "address"
        },
        {
          "internalType": "uint256",
          "name": "amount",
          "type": "uint256"
        },
        {
          "internalType": "address",
          "name": "nftAddress",
          "type": "address"
        }
      ],
      "stateMutability": "view",
      "type": "function"
    },
    {
      "inputs": [
        {
          "internalType": "uint256",
          "name": "id",
          "type": "uint256"
        },
        {
          "internalType": "uint256",
          "name": "quantity",
          "type": "uint256"
        }
      ],
      "name": "placeOrder",
      "outputs": [],
      "stateMutability": "payable",
      "type": "function"
    },
    {
      "inputs": [
        {
          "internalType": "uint256",
          "name": "",
          "type": "uint256"
        }
      ],
      "name": "products",
      "outputs": [
        {
          "internalType": "string",
          "name": "name",
          "type": "string"
        },
        {
          "internalType": "string",
          "name": "category",
          "type": "string"
        },
        {
          "internalType": "string",
          "name": "descLink",
          "type": "string"
        },
        {
          "internalType": "uint256",
          "name": "price",
          "type": "uint256"
        },
        {
          "internalType": "uint256",
          "name": "index",
          "type": "uint256"
        },
        {
          "internalType": "enum Products.OrderStatus",
          "name": "status",
          "type": "uint8"
        },
        {
          "internalType": "string",
          "name": "location",
          "type": "string"
        },
        {
          "internalType": "uint256",
          "name": "maxQuantity",
          "type": "uint256"
        },
        {
          "internalType": "address payable",
          "name": "owner",
          "type": "address"
        },
        {
          "internalType": "uint256",
          "name": "shippingFee",
          "type": "uint256"
        },
        {
          "internalType": "address",
          "name": "nftAddress",
          "type": "address"
        }
      ],
      "stateMutability": "view",
      "type": "function"
    },
    {
      "inputs": [
        {
          "internalType": "uint256",
          "name": "_orderId",
          "type": "uint256"
        }
      ],
      "name": "refundOrder",
      "outputs": [],
      "stateMutability": "nonpayable",
      "type": "function"
    }
  ],
  "bytecode": "0x608060405234801561001057600080fd5b506001600081905550615a88806100286000396000f3fe6080604052600436106200009e5760003560e01c8063843f61e21162000061578063843f61e214620001e3578063a3fa140e1462000203578063a85c38ef1462000247578063c018c4571462000295578063fd84cb9714620002c3576200009e565b80630249c30f14620000a357806323bc839b14620000f15780633dfbbad414620001215780635f0d382a14620001515780637acc0b201462000195575b600080fd5b348015620000b057600080fd5b50620000cf6004803603810190620000c9919062002aa0565b620002f1565b604051620000e89b9a9998979695949392919062002c3d565b60405180910390f35b348015620000fe57600080fd5b5062000109620005d8565b60405162000118919062003088565b60405180910390f35b3480156200012e57600080fd5b506200013962000b3b565b604051620001489190620032e9565b60405180910390f35b3480156200015e57600080fd5b506200017d600480360381019062000177919062002aa0565b62000da5565b6040516200018c919062003088565b60405180910390f35b348015620001a257600080fd5b50620001c16004803603810190620001bb91906200333e565b620012a6565b604051620001da9b9a9998979695949392919062002c3d565b60405180910390f35b620002016004803603810190620001fb919062003370565b6200158d565b005b3480156200021057600080fd5b506200022f600480360381019062000229919062003604565b62001deb565b6040516200023e919062003768565b60405180910390f35b3480156200025457600080fd5b506200027360048036038101906200026d91906200333e565b6200217d565b6040516200028c9b9a99989796959493929190620037a7565b60405180910390f35b348015620002a257600080fd5b50620002c16004803603810190620002bb91906200333e565b6200228b565b005b348015620002d057600080fd5b50620002ef6004803603810190620002e991906200333e565b6200259e565b005b6006602052806000526040600020600091509050806000018054620003169062003897565b80601f0160208091040260200160405190810160405280929190818152602001828054620003449062003897565b8015620003955780601f10620003695761010080835404028352916020019162000395565b820191906000526020600020905b8154815290600101906020018083116200037757829003601f168201915b505050505090806001018054620003ac9062003897565b80601f0160208091040260200160405190810160405280929190818152602001828054620003da9062003897565b80156200042b5780601f10620003ff576101008083540402835291602001916200042b565b820191906000526020600020905b8154815290600101906020018083116200040d57829003601f168201915b505050505090806003018054620004429062003897565b80601f0160208091040260200160405190810160405280929190818152602001828054620004709062003897565b8015620004c15780601f106200049557610100808354040283529160200191620004c1565b820191906000526020600020905b815481529060010190602001808311620004a357829003601f168201915b5050505050908060040154908060050154908060060160009054906101000a900460ff1690806007018054620004f79062003897565b80601f0160208091040260200160405190810160405280929190818152602001828054620005259062003897565b8015620005765780601f106200054a5761010080835404028352916020019162000576565b820191906000526020600020905b8154815290600101906020018083116200055857829003601f168201915b5050505050908060080154908060090160009054906101000a900473ffffffffffffffffffffffffffffffffffffffff169080600a01549080600b0160009054906101000a900473ffffffffffffffffffffffffffffffffffffffff1690508b565b60606000600780549050905060008167ffffffffffffffff811115620006035762000602620033c1565b5b6040519080825280602002602001820160405280156200064057816020015b6200062c62002826565b815260200190600190039081620006225790505b50905060005b8281101562000b3257600781600185620006619190620038fb565b6200066d9190620038fb565b8154811062000681576200068062003936565b5b90600052602060002090600c020160405180610180016040529081600082018054620006ad9062003897565b80601f0160208091040260200160405190810160405280929190818152602001828054620006db9062003897565b80156200072c5780601f1062000700576101008083540402835291602001916200072c565b820191906000526020600020905b8154815290600101906020018083116200070e57829003601f168201915b50505050508152602001600182018054620007479062003897565b80601f0160208091040260200160405190810160405280929190818152602001828054620007759062003897565b8015620007c65780601f106200079a57610100808354040283529160200191620007c6565b820191906000526020600020905b815481529060010190602001808311620007a857829003601f168201915b5050505050815260200160028201805480602002602001604051908101604052809291908181526020016000905b82821015620008aa578382906000526020600020018054620008169062003897565b80601f0160208091040260200160405190810160405280929190818152602001828054620008449062003897565b8015620008955780601f10620008695761010080835404028352916020019162000895565b820191906000526020600020905b8154815290600101906020018083116200087757829003601f168201915b505050505081526020019060010190620007f4565b505050508152602001600382018054620008c49062003897565b80601f0160208091040260200160405190810160405280929190818152602001828054620008f29062003897565b8015620009435780601f10620009175761010080835404028352916020019162000943565b820191906000526020600020905b8154815290600101906020018083116200092557829003601f168201915b5050505050815260200160048201548152602001600582015481526020016006820160009054906101000a900460ff16600481111562000988576200098762002b87565b5b60048111156200099d576200099c62002b87565b5b8152602001600782018054620009b39062003897565b80601f0160208091040260200160405190810160405280929190818152602001828054620009e19062003897565b801562000a325780601f1062000a065761010080835404028352916020019162000a32565b820191906000526020600020905b81548152906001019060200180831162000a1457829003601f168201915b50505050508152602001600882015481526020016009820160009054906101000a900473ffffffffffffffffffffffffffffffffffffffff1673ffffffffffffffffffffffffffffffffffffffff1673ffffffffffffffffffffffffffffffffffffffff168152602001600a8201548152602001600b820160009054906101000a900473ffffffffffffffffffffffffffffffffffffffff1673ffffffffffffffffffffffffffffffffffffffff1673ffffffffffffffffffffffffffffffffffffffff168152505082828151811062000b115762000b1062003936565b5b6020026020010181905250808062000b299062003965565b91505062000646565b50809250505090565b60606008805480602002602001604051908101604052809291908181526020016000905b8282101562000d9c578382906000526020600020906007020160405180610160016040529081600082015481526020016001820160009054906101000a900473ffffffffffffffffffffffffffffffffffffffff1673ffffffffffffffffffffffffffffffffffffffff1673ffffffffffffffffffffffffffffffffffffffff1681526020016002820160009054906101000a900473ffffffffffffffffffffffffffffffffffffffff1673ffffffffffffffffffffffffffffffffffffffff1673ffffffffffffffffffffffffffffffffffffffff168152602001600382015481526020016004820160009054906101000a900460ff16600481111562000c6c5762000c6b62002b87565b5b600481111562000c815762000c8062002b87565b5b81526020016004820160019054906101000a900460ff161515151581526020016004820160029054906101000a900460ff161515151581526020016004820160039054906101000a900460ff161515151581526020016004820160049054906101000a900473ffffffffffffffffffffffffffffffffffffffff1673ffffffffffffffffffffffffffffffffffffffff1673ffffffffffffffffffffffffffffffffffffffff168152602001600582015481526020016006820160009054906101000a900473ffffffffffffffffffffffffffffffffffffffff1673ffffffffffffffffffffffffffffffffffffffff1673ffffffffffffffffffffffffffffffffffffffff16815250508152602001906001019062000b5f565b50505050905090565b6060600560008373ffffffffffffffffffffffffffffffffffffffff1673ffffffffffffffffffffffffffffffffffffffff168152602001908152602001600020805480602002602001604051908101604052809291908181526020016000905b828210156200129b57838290600052602060002090600c02016040518061018001604052908160008201805462000e3d9062003897565b80601f016020809104026020016040519081016040528092919081815260200182805462000e6b9062003897565b801562000ebc5780601f1062000e905761010080835404028352916020019162000ebc565b820191906000526020600020905b81548152906001019060200180831162000e9e57829003601f168201915b5050505050815260200160018201805462000ed79062003897565b80601f016020809104026020016040519081016040528092919081815260200182805462000f059062003897565b801562000f565780601f1062000f2a5761010080835404028352916020019162000f56565b820191906000526020600020905b81548152906001019060200180831162000f3857829003601f168201915b5050505050815260200160028201805480602002602001604051908101604052809291908181526020016000905b828210156200103a57838290600052602060002001805462000fa69062003897565b80601f016020809104026020016040519081016040528092919081815260200182805462000fd49062003897565b8015620010255780601f1062000ff95761010080835404028352916020019162001025565b820191906000526020600020905b8154815290600101906020018083116200100757829003601f168201915b50505050508152602001906001019062000f84565b505050508152602001600382018054620010549062003897565b80601f0160208091040260200160405190810160405280929190818152602001828054620010829062003897565b8015620010d35780601f10620010a757610100808354040283529160200191620010d3565b820191906000526020600020905b815481529060010190602001808311620010b557829003601f168201915b5050505050815260200160048201548152602001600582015481526020016006820160009054906101000a900460ff16600481111562001118576200111762002b87565b5b60048111156200112d576200112c62002b87565b5b8152602001600782018054620011439062003897565b80601f0160208091040260200160405190810160405280929190818152602001828054620011719062003897565b8015620011c25780601f106200119657610100808354040283529160200191620011c2565b820191906000526020600020905b815481529060010190602001808311620011a457829003601f168201915b50505050508152602001600882015481526020016009820160009054906101000a900473ffffffffffffffffffffffffffffffffffffffff1673ffffffffffffffffffffffffffffffffffffffff1673ffffffffffffffffffffffffffffffffffffffff168152602001600a8201548152602001600b820160009054906101000a900473ffffffffffffffffffffffffffffffffffffffff1673ffffffffffffffffffffffffffffffffffffffff1673ffffffffffffffffffffffffffffffffffffffff16815250508152602001906001019062000e06565b505050509050919050565b6004602052806000526040600020600091509050806000018054620012cb9062003897565b80601f0160208091040260200160405190810160405280929190818152602001828054620012f99062003897565b80156200134a5780601f106200131e576101008083540402835291602001916200134a565b820191906000526020600020905b8154815290600101906020018083116200132c57829003601f168201915b505050505090806001018054620013619062003897565b80601f01602080910402602001604051908101604052809291908181526020018280546200138f9062003897565b8015620013e05780601f10620013b457610100808354040283529160200191620013e0565b820191906000526020600020905b815481529060010190602001808311620013c257829003601f168201915b505050505090806003018054620013f79062003897565b80601f0160208091040260200160405190810160405280929190818152602001828054620014259062003897565b8015620014765780601f106200144a5761010080835404028352916020019162001476565b820191906000526020600020905b8154815290600101906020018083116200145857829003601f168201915b5050505050908060040154908060050154908060060160009054906101000a900460ff1690806007018054620014ac9062003897565b80601f0160208091040260200160405190810160405280929190818152602001828054620014da9062003897565b80156200152b5780601f10620014ff576101008083540402835291602001916200152b565b820191906000526020600020905b8154815290600101906020018083116200150d57829003601f168201915b5050505050908060080154908060090160009054906101000a900473ffffffffffffffffffffffffffffffffffffffff169080600a01549080600b0160009054906101000a900473ffffffffffffffffffffffffffffffffffffffff1690508b565b62001597620027a6565b6000620015a56002620027f8565b90506000600360008381526020019081526020016000209050600060046000868152602001908152602001600020600a0154846004600088815260200190815260200160002060040154620015fb9190620039b2565b620016079190620039b2565b9050600084116200164f576040517f08c379a0000000000000000000000000000000000000000000000000000000008152600401620016469062003a3d565b60405180910390fd5b8360046000878152602001908152602001600020600801541015620016ab576040517f08c379a0000000000000000000000000000000000000000000000000000000008152600401620016a29062003aaf565b60405180910390fd5b80341015620016f1576040517f08c379a0000000000000000000000000000000000000000000000000000000008152600401620016e89062003b21565b60405180910390fd5b8160040160019054906101000a900460ff161562001746576040517f08c379a00000000000000000000000000000000000000000000000000000000081526004016200173d9062003b93565b60405180910390fd5b600060048111156200175d576200175c62002b87565b5b6004600087815260200190815260200160002060060160009054906101000a900460ff16600481111562001796576200179562002b87565b5b14620017d9576040517f08c379a0000000000000000000000000000000000000000000000000000000008152600401620017d09062003c05565b60405180910390fd5b60006004600087815260200190815260200160002060090160009054906101000a900473ffffffffffffffffffffffffffffffffffffffff1690506000816040516200182590620028c8565b62001831919062003c27565b604051809103906000f0801580156200184e573d6000803e3d6000fd5b5090508073ffffffffffffffffffffffffffffffffffffffff1663f340fa0184336040518363ffffffff1660e01b81526004016200188d919062003c69565b6000604051808303818588803b158015620018a757600080fd5b505af1158015620018bc573d6000803e3d6000fd5b5050505050848460000181905550338460010160006101000a81548173ffffffffffffffffffffffffffffffffffffffff021916908373ffffffffffffffffffffffffffffffffffffffff160217905550818460020160006101000a81548173ffffffffffffffffffffffffffffffffffffffff021916908373ffffffffffffffffffffffffffffffffffffffff16021790555082846003018190555060018460040160006101000a81548160ff0219169083600481111562001984576200198362002b87565b5b021790555060018460040160016101000a81548160ff02191690831515021790555060008460040160026101000a81548160ff02191690831515021790555060008460040160036101000a81548160ff021916908315150217905550808460040160046101000a81548173ffffffffffffffffffffffffffffffffffffffff021916908373ffffffffffffffffffffffffffffffffffffffff16021790555085846005018190555060046000888152602001908152602001600020600b0160009054906101000a900473ffffffffffffffffffffffffffffffffffffffff168460060160006101000a81548173ffffffffffffffffffffffffffffffffffffffff021916908373ffffffffffffffffffffffffffffffffffffffff1602179055508560046000898152602001908152602001600020600801600082825462001acd9190620038fb565b925050819055506008849080600181540180825580915050600190039060005260206000209060070201600090919091909150600082015481600001556001820160009054906101000a900473ffffffffffffffffffffffffffffffffffffffff168160010160006101000a81548173ffffffffffffffffffffffffffffffffffffffff021916908373ffffffffffffffffffffffffffffffffffffffff1602179055506002820160009054906101000a900473ffffffffffffffffffffffffffffffffffffffff168160020160006101000a81548173ffffffffffffffffffffffffffffffffffffffff021916908373ffffffffffffffffffffffffffffffffffffffff160217905550600382015481600301556004820160009054906101000a900460ff168160040160006101000a81548160ff0219169083600481111562001c1d5762001c1c62002b87565b5b02179055506004820160019054906101000a900460ff168160040160016101000a81548160ff0219169083151502179055506004820160029054906101000a900460ff168160040160026101000a81548160ff0219169083151502179055506004820160039054906101000a900460ff168160040160036101000a81548160ff0219169083151502179055506004820160049054906101000a900473ffffffffffffffffffffffffffffffffffffffff168160040160046101000a81548173ffffffffffffffffffffffffffffffffffffffff021916908373ffffffffffffffffffffffffffffffffffffffff160217905550600582015481600501556006820160009054906101000a900473ffffffffffffffffffffffffffffffffffffffff168160060160006101000a81548173ffffffffffffffffffffffffffffffffffffffff021916908373ffffffffffffffffffffffffffffffffffffffff16021790555050507ff9e17940e547201709f9aaacdec8ab3566601c60d8f5affb54f74b79b0b50b13853384600460008c81526020019081526020016000206004015460405162001dd0949392919062003c86565b60405180910390a1505050505062001de762002806565b5050565b60008073ffffffffffffffffffffffffffffffffffffffff163373ffffffffffffffffffffffffffffffffffffffff160362001e5e576040517f08c379a000000000000000000000000000000000000000000000000000000000815260040162001e559062003d23565b60405180910390fd5b600062001e6c6001620027f8565b905060006004600083815260200190815260200160002090508a81600001908162001e98919062003f0d565b50338160090160006101000a81548173ffffffffffffffffffffffffffffffffffffffff021916908373ffffffffffffffffffffffffffffffffffffffff1602179055508981600101908162001eef919062003f0d565b508781600301908162001f03919062003f0d565b508881600201908051906020019062001f1e929190620028d6565b508181600501819055508581600701908162001f3b919062003f0d565b5084816008018190555086816004018190555060008160060160006101000a81548160ff0219169083600481111562001f795762001f7862002b87565b5b02179055508381600a018190555060078190806001815401808255809150506001900390600052602060002090600c02016000909190919091506000820181600001908162001fc991906200400c565b506001820181600101908162001fe091906200400c565b50600282018160020190805462001ff992919062002936565b50600382018160030190816200201091906200400c565b5060048201548160040155600582015481600501556006820160009054906101000a900460ff168160060160006101000a81548160ff0219169083600481111562002060576200205f62002b87565b5b0217905550600782018160070190816200207b91906200400c565b50600882015481600801556009820160009054906101000a900473ffffffffffffffffffffffffffffffffffffffff168160090160006101000a81548173ffffffffffffffffffffffffffffffffffffffff021916908373ffffffffffffffffffffffffffffffffffffffff160217905550600a82015481600a0155600b820160009054906101000a900473ffffffffffffffffffffffffffffffffffffffff1681600b0160006101000a81548173ffffffffffffffffffffffffffffffffffffffff021916908373ffffffffffffffffffffffffffffffffffffffff16021790555050506200216c600162002810565b819250505098975050505050505050565b60036020528060005260406000206000915090508060000154908060010160009054906101000a900473ffffffffffffffffffffffffffffffffffffffff16908060020160009054906101000a900473ffffffffffffffffffffffffffffffffffffffff16908060030154908060040160009054906101000a900460ff16908060040160019054906101000a900460ff16908060040160029054906101000a900460ff16908060040160039054906101000a900460ff16908060040160049054906101000a900473ffffffffffffffffffffffffffffffffffffffff16908060050154908060060160009054906101000a900473ffffffffffffffffffffffffffffffffffffffff1690508b565b806003600082815260200190815260200160002060020160009054906101000a900473ffffffffffffffffffffffffffffffffffffffff1673ffffffffffffffffffffffffffffffffffffffff163373ffffffffffffffffffffffffffffffffffffffff161462002333576040517f08c379a00000000000000000000000000000000000000000000000000000000081526004016200232a9062004183565b60405180910390fd5b6200233d620027a6565b60006003600084815260200190815260200160002090508060040160019054906101000a900460ff16620023a8576040517f08c379a00000000000000000000000000000000000000000000000000000000081526004016200239f90620041f5565b60405180910390fd5b8060040160029054906101000a900460ff1615620023fd576040517f08c379a0000000000000000000000000000000000000000000000000000000008152600401620023f4906200428d565b60405180910390fd5b8060040160049054906101000a900473ffffffffffffffffffffffffffffffffffffffff1673ffffffffffffffffffffffffffffffffffffffff16638c52dc416040518163ffffffff1660e01b8152600401600060405180830381600087803b1580156200246a57600080fd5b505af11580156200247f573d6000803e3d6000fd5b5050505060048160040160006101000a81548160ff02191690836004811115620024ae57620024ad62002b87565b5b021790555060018160040160036101000a81548160ff0219169083151502179055508060040160049054906101000a900473ffffffffffffffffffffffffffffffffffffffff1673ffffffffffffffffffffffffffffffffffffffff16639af6549a6040518163ffffffff1660e01b8152600401600060405180830381600087803b1580156200253d57600080fd5b505af115801562002552573d6000803e3d6000fd5b505050507f303a31648d19f17852cf82657162c4bdd4a06ab3f36f1e7ae1118f4ca6473e118360405162002587919062003768565b60405180910390a1506200259a62002806565b5050565b806003600082815260200190815260200160002060010160009054906101000a900473ffffffffffffffffffffffffffffffffffffffff1673ffffffffffffffffffffffffffffffffffffffff163373ffffffffffffffffffffffffffffffffffffffff161462002646576040517f08c379a00000000000000000000000000000000000000000000000000000000081526004016200263d9062004325565b60405180910390fd5b62002650620027a6565b60006003600084815260200190815260200160002090508060040160019054906101000a900460ff16620026bb576040517f08c379a0000000000000000000000000000000000000000000000000000000008152600401620026b290620041f5565b60405180910390fd5b8060040160049054906101000a900473ffffffffffffffffffffffffffffffffffffffff1673ffffffffffffffffffffffffffffffffffffffff166343d726d66040518163ffffffff1660e01b8152600401600060405180830381600087803b1580156200272857600080fd5b505af11580156200273d573d6000803e3d6000fd5b5050505060018160040160026101000a81548160ff0219169083151502179055507fe21fe02c1589242b30be2057f54fd54b7ddc463695d19ffdb54f9ebb0584f24a836040516200278f919062003768565b60405180910390a150620027a262002806565b5050565b600260005403620027ee576040517f08c379a0000000000000000000000000000000000000000000000000000000008152600401620027e59062004397565b60405180910390fd5b6002600081905550565b600081600001549050919050565b6001600081905550565b6001816000016000828254019250508190555050565b6040518061018001604052806060815260200160608152602001606081526020016060815260200160008152602001600081526020016000600481111562002873576200287262002b87565b5b81526020016060815260200160008152602001600073ffffffffffffffffffffffffffffffffffffffff16815260200160008152602001600073ffffffffffffffffffffffffffffffffffffffff1681525090565b61169980620043ba83390190565b82805482825590600052602060002090810192821562002923579160200282015b828111156200292257825182908162002911919062003f0d565b5091602001919060010190620028f7565b5b5090506200293291906200299a565b5090565b828054828255906000526020600020908101928215620029875760005260206000209182015b828111156200298657828290816200297591906200400c565b50916001019190600101906200295c565b5b5090506200299691906200299a565b5090565b5b80821115620029be5760008181620029b49190620029c2565b506001016200299b565b5090565b508054620029d09062003897565b6000825580601f10620029e4575062002a05565b601f01602090049060005260206000209081019062002a04919062002a08565b5b50565b5b8082111562002a2357600081600090555060010162002a09565b5090565b6000604051905090565b600080fd5b600080fd5b600073ffffffffffffffffffffffffffffffffffffffff82169050919050565b600062002a688262002a3b565b9050919050565b62002a7a8162002a5b565b811462002a8657600080fd5b50565b60008135905062002a9a8162002a6f565b92915050565b60006020828403121562002ab95762002ab862002a31565b5b600062002ac98482850162002a89565b91505092915050565b600081519050919050565b600082825260208201905092915050565b60005b8381101562002b0e57808201518184015260208101905062002af1565b60008484015250505050565b6000601f19601f8301169050919050565b600062002b388262002ad2565b62002b44818562002add565b935062002b5681856020860162002aee565b62002b618162002b1a565b840191505092915050565b6000819050919050565b62002b818162002b6c565b82525050565b7f4e487b7100000000000000000000000000000000000000000000000000000000600052602160045260246000fd5b6005811062002bca5762002bc962002b87565b5b50565b600081905062002bdd8262002bb6565b919050565b600062002bef8262002bcd565b9050919050565b62002c018162002be2565b82525050565b600062002c148262002a3b565b9050919050565b62002c268162002c07565b82525050565b62002c378162002a5b565b82525050565b600061016082019050818103600083015262002c5a818e62002b2b565b9050818103602083015262002c70818d62002b2b565b9050818103604083015262002c86818c62002b2b565b905062002c97606083018b62002b76565b62002ca6608083018a62002b76565b62002cb560a083018962002bf6565b81810360c083015262002cc9818862002b2b565b905062002cda60e083018762002b76565b62002cea61010083018662002c1b565b62002cfa61012083018562002b76565b62002d0a61014083018462002c2c565b9c9b505050505050505050505050565b600081519050919050565b600082825260208201905092915050565b6000819050602082019050919050565b600082825260208201905092915050565b600062002d648262002ad2565b62002d70818562002d46565b935062002d8281856020860162002aee565b62002d8d8162002b1a565b840191505092915050565b600081519050919050565b600082825260208201905092915050565b6000819050602082019050919050565b600062002dd2838362002d57565b905092915050565b6000602082019050919050565b600062002df48262002d98565b62002e00818562002da3565b93508360208202850162002e148562002db4565b8060005b8581101562002e56578484038952815162002e34858262002dc4565b945062002e418362002dda565b925060208a0199505060018101905062002e18565b50829750879550505050505092915050565b62002e738162002b6c565b82525050565b62002e848162002be2565b82525050565b62002e958162002c07565b82525050565b62002ea68162002a5b565b82525050565b600061018083016000830151848203600086015262002ecc828262002d57565b9150506020830151848203602086015262002ee8828262002d57565b9150506040830151848203604086015262002f04828262002de7565b9150506060830151848203606086015262002f20828262002d57565b915050608083015162002f37608086018262002e68565b5060a083015162002f4c60a086018262002e68565b5060c083015162002f6160c086018262002e79565b5060e083015184820360e086015262002f7b828262002d57565b91505061010083015162002f9461010086018262002e68565b5061012083015162002fab61012086018262002e8a565b5061014083015162002fc261014086018262002e68565b5061016083015162002fd961016086018262002e9b565b508091505092915050565b600062002ff2838362002eac565b905092915050565b6000602082019050919050565b6000620030148262002d1a565b62003020818562002d25565b935083602082028501620030348562002d36565b8060005b8581101562003076578484038952815162003054858262002fe4565b9450620030618362002ffa565b925060208a0199505060018101905062003038565b50829750879550505050505092915050565b60006020820190508181036000830152620030a4818462003007565b905092915050565b600081519050919050565b600082825260208201905092915050565b6000819050602082019050919050565b60008115159050919050565b620030ef81620030d8565b82525050565b6000819050919050565b6000620031206200311a620031148462002a3b565b620030f5565b62002a3b565b9050919050565b60006200313482620030ff565b9050919050565b6000620031488262003127565b9050919050565b6200315a816200313b565b82525050565b6101608201600082015162003179600085018262002e68565b5060208201516200318e602085018262002e9b565b506040820151620031a3604085018262002e9b565b506060820151620031b8606085018262002e68565b506080820151620031cd608085018262002e79565b5060a0820151620031e260a0850182620030e4565b5060c0820151620031f760c0850182620030e4565b5060e08201516200320c60e0850182620030e4565b50610100820151620032236101008501826200314f565b506101208201516200323a61012085018262002e68565b506101408201516200325161014085018262002e9b565b50505050565b600062003265838362003160565b6101608301905092915050565b6000602082019050919050565b60006200328c82620030ac565b620032988185620030b7565b9350620032a583620030c8565b8060005b83811015620032dc578151620032c0888262003257565b9750620032cd8362003272565b925050600181019050620032a9565b5085935050505092915050565b600060208201905081810360008301526200330581846200327f565b905092915050565b620033188162002b6c565b81146200332457600080fd5b50565b60008135905062003338816200330d565b92915050565b60006020828403121562003357576200335662002a31565b5b6000620033678482850162003327565b91505092915050565b600080604083850312156200338a576200338962002a31565b5b60006200339a8582860162003327565b9250506020620033ad8582860162003327565b9150509250929050565b600080fd5b600080fd5b7f4e487b7100000000000000000000000000000000000000000000000000000000600052604160045260246000fd5b620033fb8262002b1a565b810181811067ffffffffffffffff821117156200341d576200341c620033c1565b5b80604052505050565b60006200343262002a27565b9050620034408282620033f0565b919050565b600067ffffffffffffffff821115620034635762003462620033c1565b5b6200346e8262002b1a565b9050602081019050919050565b82818337600083830152505050565b6000620034a16200349b8462003445565b62003426565b905082815260208101848484011115620034c057620034bf620033bc565b5b620034cd8482856200347b565b509392505050565b600082601f830112620034ed57620034ec620033b7565b5b8135620034ff8482602086016200348a565b91505092915050565b600067ffffffffffffffff821115620035265762003525620033c1565b5b602082029050602081019050919050565b600080fd5b6000620035536200354d8462003508565b62003426565b9050808382526020820190506020840283018581111562003579576200357862003537565b5b835b81811015620035c757803567ffffffffffffffff811115620035a257620035a1620033b7565b5b808601620035b18982620034d5565b855260208501945050506020810190506200357b565b5050509392505050565b600082601f830112620035e957620035e8620033b7565b5b8135620035fb8482602086016200353c565b91505092915050565b600080600080600080600080610100898b03121562003628576200362762002a31565b5b600089013567ffffffffffffffff81111562003649576200364862002a36565b5b620036578b828c01620034d5565b985050602089013567ffffffffffffffff8111156200367b576200367a62002a36565b5b620036898b828c01620034d5565b975050604089013567ffffffffffffffff811115620036ad57620036ac62002a36565b5b620036bb8b828c01620035d1565b965050606089013567ffffffffffffffff811115620036df57620036de62002a36565b5b620036ed8b828c01620034d5565b9550506080620037008b828c0162003327565b94505060a089013567ffffffffffffffff81111562003724576200372362002a36565b5b620037328b828c01620034d5565b93505060c0620037458b828c0162003327565b92505060e0620037588b828c0162003327565b9150509295985092959890939650565b60006020820190506200377f600083018462002b76565b92915050565b6200379081620030d8565b82525050565b620037a1816200313b565b82525050565b600061016082019050620037bf600083018e62002b76565b620037ce602083018d62002c2c565b620037dd604083018c62002c2c565b620037ec606083018b62002b76565b620037fb608083018a62002bf6565b6200380a60a083018962003785565b6200381960c083018862003785565b6200382860e083018762003785565b6200383861010083018662003796565b6200384861012083018562002b76565b6200385861014083018462002c2c565b9c9b505050505050505050505050565b7f4e487b7100000000000000000000000000000000000000000000000000000000600052602260045260246000fd5b60006002820490506001821680620038b057607f821691505b602082108103620038c657620038c562003868565b5b50919050565b7f4e487b7100000000000000000000000000000000000000000000000000000000600052601160045260246000fd5b6000620039088262002b6c565b9150620039158362002b6c565b925082820390508181111562003930576200392f620038cc565b5b92915050565b7f4e487b7100000000000000000000000000000000000000000000000000000000600052603260045260246000fd5b6000620039728262002b6c565b91507fffffffffffffffffffffffffffffffffffffffffffffffffffffffffffffffff8203620039a757620039a6620038cc565b5b600182019050919050565b6000620039bf8262002b6c565b9150620039cc8362002b6c565b9250828201905080821115620039e757620039e6620038cc565b5b92915050565b7f7175616e746974792063616e74206265207a65726f0000000000000000000000600082015250565b600062003a2560158362002add565b915062003a3282620039ed565b602082019050919050565b6000602082019050818103600083015262003a588162003a16565b9050919050565b7f6f7574206f662073746f636b0000000000000000000000000000000000000000600082015250565b600062003a97600c8362002add565b915062003aa48262003a5f565b602082019050919050565b6000602082019050818103600083015262003aca8162003a88565b9050919050565b7f496e73756666696369656e74207061796d656e742e0000000000000000000000600082015250565b600062003b0960158362002add565b915062003b168262003ad1565b602082019050919050565b6000602082019050818103600083015262003b3c8162003afa565b9050919050565b7f5061796d656e742068617320616c7265616479206265656e206d6164652e0000600082015250565b600062003b7b601e8362002add565b915062003b888262003b43565b602082019050919050565b6000602082019050818103600083015262003bae8162003b6c565b9050919050565b7f50726f64756374206973206e6f7420617661696c61626c652e00000000000000600082015250565b600062003bed60198362002add565b915062003bfa8262003bb5565b602082019050919050565b6000602082019050818103600083015262003c208162003bde565b9050919050565b600060208201905062003c3e600083018462002c1b565b92915050565b600062003c518262003127565b9050919050565b62003c638162003c44565b82525050565b600060208201905062003c80600083018462003c58565b92915050565b600060808201905062003c9d600083018762002b76565b62003cac602083018662002c2c565b62003cbb604083018562003c58565b62003cca606083018462002b76565b95945050505050565b7f496e76616c69642073656e64657220616464726573732e000000000000000000600082015250565b600062003d0b60178362002add565b915062003d188262003cd3565b602082019050919050565b6000602082019050818103600083015262003d3e8162003cfc565b9050919050565b60008190508160005260206000209050919050565b60006020601f8301049050919050565b600082821b905092915050565b60006008830262003da97fffffffffffffffffffffffffffffffffffffffffffffffffffffffffffffffff8262003d6a565b62003db5868362003d6a565b95508019841693508086168417925050509392505050565b600062003dee62003de862003de28462002b6c565b620030f5565b62002b6c565b9050919050565b6000819050919050565b62003e0a8362003dcd565b62003e2262003e198262003df5565b84845462003d77565b825550505050565b600090565b62003e3962003e2a565b62003e4681848462003dff565b505050565b5b8181101562003e6e5762003e6260008262003e2f565b60018101905062003e4c565b5050565b601f82111562003ebd5762003e878162003d45565b62003e928462003d5a565b8101602085101562003ea2578190505b62003eba62003eb18562003d5a565b83018262003e4b565b50505b505050565b600082821c905092915050565b600062003ee26000198460080262003ec2565b1980831691505092915050565b600062003efd838362003ecf565b9150826002028217905092915050565b62003f188262002ad2565b67ffffffffffffffff81111562003f345762003f33620033c1565b5b62003f40825462003897565b62003f4d82828562003e72565b600060209050601f83116001811462003f85576000841562003f70578287015190505b62003f7c858262003eef565b86555062003fec565b601f19841662003f958662003d45565b60005b8281101562003fbf5784890151825560018201915060208501945060208101905062003f98565b8683101562003fdf578489015162003fdb601f89168262003ecf565b8355505b6001600288020188555050505b505050505050565b600081549050620040058162003897565b9050919050565b8181036200401c5750506200410b565b620040278262003ff4565b67ffffffffffffffff811115620040435762004042620033c1565b5b6200404f825462003897565b6200405c82828562003e72565b6000601f8311600181146200409057600084156200407b578287015490505b62004087858262003eef565b86555062004104565b601f198416620040a08762003d45565b9650620040ad8662003d45565b60005b82811015620040d757848901548255600182019150600185019450602081019050620040b0565b86831015620040f75784890154620040f3601f89168262003ecf565b8355505b6001600288020188555050505b5050505050505b565b7f4f6e6c79207468652073656c6c65722063616e2063616c6c207468697320667560008201527f6e6374696f6e2e00000000000000000000000000000000000000000000000000602082015250565b60006200416b60278362002add565b915062004178826200410d565b604082019050919050565b600060208201905081810360008301526200419e816200415c565b9050919050565b7f5061796d656e7420686173206e6f74206265656e206d6164652e000000000000600082015250565b6000620041dd601a8362002add565b9150620041ea82620041a5565b602082019050919050565b600060208201905081810360008301526200421081620041ce565b9050919050565b7f4f726465722068617320616c7265616479206265656e2066756c66696c6c656460008201527f2e00000000000000000000000000000000000000000000000000000000000000602082015250565b60006200427560218362002add565b9150620042828262004217565b604082019050919050565b60006020820190508181036000830152620042a88162004266565b9050919050565b7f4f6e6c79207468652062757965722063616e2063616c6c20746869732066756e60008201527f6374696f6e2e0000000000000000000000000000000000000000000000000000602082015250565b60006200430d60268362002add565b91506200431a82620042af565b604082019050919050565b600060208201905081810360008301526200434081620042fe565b9050919050565b7f5265656e7472616e637947756172643a207265656e7472616e742063616c6c00600082015250565b60006200437f601f8362002add565b91506200438c8262004347565b602082019050919050565b60006020820190508181036000830152620043b28162004370565b905091905056fe60a06040523480156200001157600080fd5b506040516200169938038062001699833981810160405281019062000037919062000268565b620000576200004b6200013260201b60201c565b6200013a60201b60201c565b600073ffffffffffffffffffffffffffffffffffffffff168173ffffffffffffffffffffffffffffffffffffffff1603620000c9576040517f08c379a0000000000000000000000000000000000000000000000000000000008152600401620000c09062000321565b60405180910390fd5b8073ffffffffffffffffffffffffffffffffffffffff1660808173ffffffffffffffffffffffffffffffffffffffff16815250506000600260006101000a81548160ff0219169083600281111562000126576200012562000343565b5b02179055505062000372565b600033905090565b60008060009054906101000a900473ffffffffffffffffffffffffffffffffffffffff169050816000806101000a81548173ffffffffffffffffffffffffffffffffffffffff021916908373ffffffffffffffffffffffffffffffffffffffff1602179055508173ffffffffffffffffffffffffffffffffffffffff168173ffffffffffffffffffffffffffffffffffffffff167f8be0079c531659141344cd1fd0a4f28419497f9722a3daafe3b4186f6b6457e060405160405180910390a35050565b600080fd5b600073ffffffffffffffffffffffffffffffffffffffff82169050919050565b6000620002308262000203565b9050919050565b620002428162000223565b81146200024e57600080fd5b50565b600081519050620002628162000237565b92915050565b600060208284031215620002815762000280620001fe565b5b6000620002918482850162000251565b91505092915050565b600082825260208201905092915050565b7f526566756e64457363726f773a2062656e65666963696172792069732074686560008201527f207a65726f206164647265737300000000000000000000000000000000000000602082015250565b600062000309602d836200029a565b91506200031682620002ab565b604082019050919050565b600060208201905081810360008301526200033c81620002fa565b9050919050565b7f4e487b7100000000000000000000000000000000000000000000000000000000600052602160045260246000fd5b60805161130b6200038e6000396000610275015261130b6000f3fe6080604052600436106100a75760003560e01c80638da5cb5b116100645780638da5cb5b146101825780639af6549a146101ad578063c19d93fb146101c4578063e3a9db1a146101ef578063f2fde38b1461022c578063f340fa0114610255576100a7565b806338af3eed146100ac57806343d726d6146100d757806351cff8d9146100ee578063685ca19414610117578063715018a6146101545780638c52dc411461016b575b600080fd5b3480156100b857600080fd5b506100c1610271565b6040516100ce9190610b3b565b60405180910390f35b3480156100e357600080fd5b506100ec610299565b005b3480156100fa57600080fd5b5061011560048036038101906101109190610b87565b610367565b005b34801561012357600080fd5b5061013e60048036038101906101399190610bf2565b6103bb565b60405161014b9190610c3a565b60405180910390f35b34801561016057600080fd5b506101696103f3565b005b34801561017757600080fd5b50610180610407565b005b34801561018e57600080fd5b506101976104d6565b6040516101a49190610c64565b60405180910390f35b3480156101b957600080fd5b506101c26104ff565b005b3480156101d057600080fd5b506101d961059e565b6040516101e69190610cf6565b60405180910390f35b3480156101fb57600080fd5b5061021660048036038101906102119190610bf2565b6105b5565b6040516102239190610d2a565b60405180910390f35b34801561023857600080fd5b50610253600480360381019061024e9190610bf2565b6105fe565b005b61026f600480360381019061026a9190610bf2565b610681565b005b60007f0000000000000000000000000000000000000000000000000000000000000000905090565b6102a16106fb565b600060028111156102b5576102b4610c7f565b5b6102bd61059e565b60028111156102cf576102ce610c7f565b5b1461030f576040517f08c379a000000000000000000000000000000000000000000000000000000000815260040161030690610dc8565b60405180910390fd5b60028060006101000a81548160ff0219169083600281111561033457610333610c7f565b5b02179055507f088672c3a6e342f7cd94a65ba63b79df24a8973927b4d05d803c44bbf787d12f60405160405180910390a1565b610370816103bb565b6103af576040517f08c379a00000000000000000000000000000000000000000000000000000000081526004016103a690610e5a565b60405180910390fd5b6103b881610779565b50565b6000600160028111156103d1576103d0610c7f565b5b6103d961059e565b60028111156103eb576103ea610c7f565b5b149050919050565b6103fb6106fb565b6104056000610885565b565b61040f6106fb565b6000600281111561042357610422610c7f565b5b61042b61059e565b600281111561043d5761043c610c7f565b5b1461047d576040517f08c379a000000000000000000000000000000000000000000000000000000000815260040161047490610eec565b60405180910390fd5b6001600260006101000a81548160ff021916908360028111156104a3576104a2610c7f565b5b02179055507f599d8e5a83cffb867d051598c4d70e805d59802d8081c1c7d6dffc5b6aca2b8960405160405180910390a1565b60008060009054906101000a900473ffffffffffffffffffffffffffffffffffffffff16905090565b60028081111561051257610511610c7f565b5b61051a61059e565b600281111561052c5761052b610c7f565b5b1461056c576040517f08c379a000000000000000000000000000000000000000000000000000000000815260040161056390610f7e565b60405180910390fd5b61059c47610578610271565b73ffffffffffffffffffffffffffffffffffffffff1661094990919063ffffffff16565b565b6000600260009054906101000a900460ff16905090565b6000600160008373ffffffffffffffffffffffffffffffffffffffff1673ffffffffffffffffffffffffffffffffffffffff168152602001908152602001600020549050919050565b6106066106fb565b600073ffffffffffffffffffffffffffffffffffffffff168173ffffffffffffffffffffffffffffffffffffffff1603610675576040517f08c379a000000000000000000000000000000000000000000000000000000000815260040161066c90611010565b60405180910390fd5b61067e81610885565b50565b6000600281111561069557610694610c7f565b5b61069d61059e565b60028111156106af576106ae610c7f565b5b146106ef576040517f08c379a00000000000000000000000000000000000000000000000000000000081526004016106e6906110a2565b60405180910390fd5b6106f881610a3d565b50565b610703610af2565b73ffffffffffffffffffffffffffffffffffffffff166107216104d6565b73ffffffffffffffffffffffffffffffffffffffff1614610777576040517f08c379a000000000000000000000000000000000000000000000000000000000815260040161076e9061110e565b60405180910390fd5b565b6107816106fb565b6000600160008373ffffffffffffffffffffffffffffffffffffffff1673ffffffffffffffffffffffffffffffffffffffff1681526020019081526020016000205490506000600160008473ffffffffffffffffffffffffffffffffffffffff1673ffffffffffffffffffffffffffffffffffffffff16815260200190815260200160002081905550610833818373ffffffffffffffffffffffffffffffffffffffff1661094990919063ffffffff16565b8173ffffffffffffffffffffffffffffffffffffffff167f7084f5476618d8e60b11ef0d7d3f06914655adb8793e28ff7f018d4c76d505d5826040516108799190610d2a565b60405180910390a25050565b60008060009054906101000a900473ffffffffffffffffffffffffffffffffffffffff169050816000806101000a81548173ffffffffffffffffffffffffffffffffffffffff021916908373ffffffffffffffffffffffffffffffffffffffff1602179055508173ffffffffffffffffffffffffffffffffffffffff168173ffffffffffffffffffffffffffffffffffffffff167f8be0079c531659141344cd1fd0a4f28419497f9722a3daafe3b4186f6b6457e060405160405180910390a35050565b8047101561098c576040517f08c379a00000000000000000000000000000000000000000000000000000000081526004016109839061117a565b60405180910390fd5b60008273ffffffffffffffffffffffffffffffffffffffff16826040516109b2906111cb565b60006040518083038185875af1925050503d80600081146109ef576040519150601f19603f3d011682016040523d82523d6000602084013e6109f4565b606091505b5050905080610a38576040517f08c379a0000000000000000000000000000000000000000000000000000000008152600401610a2f90611252565b60405180910390fd5b505050565b610a456106fb565b600034905080600160008473ffffffffffffffffffffffffffffffffffffffff1673ffffffffffffffffffffffffffffffffffffffff1681526020019081526020016000206000828254610a9991906112a1565b925050819055508173ffffffffffffffffffffffffffffffffffffffff167f2da466a7b24304f47e87fa2e1e5a81b9831ce54fec19055ce277ca2f39ba42c482604051610ae69190610d2a565b60405180910390a25050565b600033905090565b600073ffffffffffffffffffffffffffffffffffffffff82169050919050565b6000610b2582610afa565b9050919050565b610b3581610b1a565b82525050565b6000602082019050610b506000830184610b2c565b92915050565b600080fd5b610b6481610b1a565b8114610b6f57600080fd5b50565b600081359050610b8181610b5b565b92915050565b600060208284031215610b9d57610b9c610b56565b5b6000610bab84828501610b72565b91505092915050565b6000610bbf82610afa565b9050919050565b610bcf81610bb4565b8114610bda57600080fd5b50565b600081359050610bec81610bc6565b92915050565b600060208284031215610c0857610c07610b56565b5b6000610c1684828501610bdd565b91505092915050565b60008115159050919050565b610c3481610c1f565b82525050565b6000602082019050610c4f6000830184610c2b565b92915050565b610c5e81610bb4565b82525050565b6000602082019050610c796000830184610c55565b92915050565b7f4e487b7100000000000000000000000000000000000000000000000000000000600052602160045260246000fd5b60038110610cbf57610cbe610c7f565b5b50565b6000819050610cd082610cae565b919050565b6000610ce082610cc2565b9050919050565b610cf081610cd5565b82525050565b6000602082019050610d0b6000830184610ce7565b92915050565b6000819050919050565b610d2481610d11565b82525050565b6000602082019050610d3f6000830184610d1b565b92915050565b600082825260208201905092915050565b7f526566756e64457363726f773a2063616e206f6e6c7920636c6f73652077686960008201527f6c65206163746976650000000000000000000000000000000000000000000000602082015250565b6000610db2602983610d45565b9150610dbd82610d56565b604082019050919050565b60006020820190508181036000830152610de181610da5565b9050919050565b7f436f6e646974696f6e616c457363726f773a207061796565206973206e6f742060008201527f616c6c6f77656420746f20776974686472617700000000000000000000000000602082015250565b6000610e44603383610d45565b9150610e4f82610de8565b604082019050919050565b60006020820190508181036000830152610e7381610e37565b9050919050565b7f526566756e64457363726f773a2063616e206f6e6c7920656e61626c6520726560008201527f66756e6473207768696c65206163746976650000000000000000000000000000602082015250565b6000610ed6603283610d45565b9150610ee182610e7a565b604082019050919050565b60006020820190508181036000830152610f0581610ec9565b9050919050565b7f526566756e64457363726f773a2062656e65666963696172792063616e206f6e60008201527f6c79207769746864726177207768696c6520636c6f7365640000000000000000602082015250565b6000610f68603883610d45565b9150610f7382610f0c565b604082019050919050565b60006020820190508181036000830152610f9781610f5b565b9050919050565b7f4f776e61626c653a206e6577206f776e657220697320746865207a65726f206160008201527f6464726573730000000000000000000000000000000000000000000000000000602082015250565b6000610ffa602683610d45565b915061100582610f9e565b604082019050919050565b6000602082019050818103600083015261102981610fed565b9050919050565b7f526566756e64457363726f773a2063616e206f6e6c79206465706f736974207760008201527f68696c6520616374697665000000000000000000000000000000000000000000602082015250565b600061108c602b83610d45565b915061109782611030565b604082019050919050565b600060208201905081810360008301526110bb8161107f565b9050919050565b7f4f776e61626c653a2063616c6c6572206973206e6f7420746865206f776e6572600082015250565b60006110f8602083610d45565b9150611103826110c2565b602082019050919050565b60006020820190508181036000830152611127816110eb565b9050919050565b7f416464726573733a20696e73756666696369656e742062616c616e6365000000600082015250565b6000611164601d83610d45565b915061116f8261112e565b602082019050919050565b6000602082019050818103600083015261119381611157565b9050919050565b600081905092915050565b50565b60006111b560008361119a565b91506111c0826111a5565b600082019050919050565b60006111d6826111a8565b9150819050919050565b7f416464726573733a20756e61626c6520746f2073656e642076616c75652c207260008201527f6563697069656e74206d61792068617665207265766572746564000000000000602082015250565b600061123c603a83610d45565b9150611247826111e0565b604082019050919050565b6000602082019050818103600083015261126b8161122f565b9050919050565b7f4e487b7100000000000000000000000000000000000000000000000000000000600052601160045260246000fd5b60006112ac82610d11565b91506112b783610d11565b92508282019050808211156112cf576112ce611272565b5b9291505056fea264697066735822122096a00e245e5af2ce4aae68743b503252f0fe4ec2f16160aeab78dcc9e440dc5064736f6c63430008120033a26469706673582212208dcee9eed55e7ad25219dfcc81202b04a4db0960bb77534728c33fa1ac05f5ee64736f6c63430008120033",
  "linkReferences": {},
  "deployedLinkReferences": {}
}