{
  "_format": "hh-sol-artifact-1",
  "contractName": "Store",
  "sourceName": "contracts/Store.sol",
  "abi": [
    {
      "inputs": [
        {
          "internalType": "address",
          "name": "",
          "type": "address"
        }
      ],
      "name": "addressToStore",
      "outputs": [
        {
          "internalType": "address",
          "name": "owner",
          "type": "address"
        },
        {
          "internalType": "string",
          "name": "storeName",
          "type": "string"
        },
        {
          "internalType": "string",
          "name": "category",
          "type": "string"
        },
        {
          "internalType": "string",
          "name": "description",
          "type": "string"
        },
        {
          "internalType": "string",
          "name": "location",
          "type": "string"
        },
        {
          "internalType": "string",
          "name": "profileImg",
          "type": "string"
        },
        {
          "internalType": "string",
          "name": "coverImage",
          "type": "string"
        },
        {
          "internalType": "uint256",
          "name": "id",
          "type": "uint256"
        }
      ],
      "stateMutability": "view",
      "type": "function"
    },
    {
      "inputs": [
        {
          "internalType": "address",
          "name": "",
          "type": "address"
        }
      ],
      "name": "addressToStream",
      "outputs": [
        {
          "internalType": "uint256",
          "name": "id",
          "type": "uint256"
        },
        {
          "internalType": "string",
          "name": "streamId",
          "type": "string"
        },
        {
          "internalType": "string",
          "name": "storeName",
          "type": "string"
        },
        {
          "internalType": "address",
          "name": "owner",
          "type": "address"
        },
        {
          "internalType": "string",
          "name": "storeImage",
          "type": "string"
        },
        {
          "internalType": "bool",
          "name": "isActive",
          "type": "bool"
        }
      ],
      "stateMutability": "view",
      "type": "function"
    },
    {
      "inputs": [
        {
          "internalType": "address",
          "name": "",
          "type": "address"
        },
        {
          "internalType": "uint256",
          "name": "",
          "type": "uint256"
        }
      ],
      "name": "addressToUintStream",
      "outputs": [
        {
          "internalType": "uint256",
          "name": "id",
          "type": "uint256"
        },
        {
          "internalType": "string",
          "name": "streamId",
          "type": "string"
        },
        {
          "internalType": "string",
          "name": "storeName",
          "type": "string"
        },
        {
          "internalType": "address",
          "name": "owner",
          "type": "address"
        },
        {
          "internalType": "string",
          "name": "storeImage",
          "type": "string"
        },
        {
          "internalType": "bool",
          "name": "isActive",
          "type": "bool"
        }
      ],
      "stateMutability": "view",
      "type": "function"
    },
    {
      "inputs": [
        {
          "internalType": "uint256",
          "name": "",
          "type": "uint256"
        }
      ],
      "name": "arrayStore",
      "outputs": [
        {
          "internalType": "address",
          "name": "owner",
          "type": "address"
        },
        {
          "internalType": "string",
          "name": "storeName",
          "type": "string"
        },
        {
          "internalType": "string",
          "name": "category",
          "type": "string"
        },
        {
          "internalType": "string",
          "name": "description",
          "type": "string"
        },
        {
          "internalType": "string",
          "name": "location",
          "type": "string"
        },
        {
          "internalType": "string",
          "name": "profileImg",
          "type": "string"
        },
        {
          "internalType": "string",
          "name": "coverImage",
          "type": "string"
        },
        {
          "internalType": "uint256",
          "name": "id",
          "type": "uint256"
        }
      ],
      "stateMutability": "view",
      "type": "function"
    },
    {
      "inputs": [
        {
          "internalType": "uint256",
          "name": "",
          "type": "uint256"
        }
      ],
      "name": "arrayStream",
      "outputs": [
        {
          "internalType": "uint256",
          "name": "id",
          "type": "uint256"
        },
        {
          "internalType": "string",
          "name": "streamId",
          "type": "string"
        },
        {
          "internalType": "string",
          "name": "storeName",
          "type": "string"
        },
        {
          "internalType": "address",
          "name": "owner",
          "type": "address"
        },
        {
          "internalType": "string",
          "name": "storeImage",
          "type": "string"
        },
        {
          "internalType": "bool",
          "name": "isActive",
          "type": "bool"
        }
      ],
      "stateMutability": "view",
      "type": "function"
    },
    {
      "inputs": [],
      "name": "cancelStream",
      "outputs": [],
      "stateMutability": "nonpayable",
      "type": "function"
    },
    {
      "inputs": [
        {
          "internalType": "string",
          "name": "_storeName",
          "type": "string"
        },
        {
          "internalType": "string",
          "name": "_category",
          "type": "string"
        },
        {
          "internalType": "string",
          "name": "_description",
          "type": "string"
        },
        {
          "internalType": "string",
          "name": "_location",
          "type": "string"
        },
        {
          "internalType": "string",
          "name": "_profileImage",
          "type": "string"
        },
        {
          "internalType": "string",
          "name": "_coverImage",
          "type": "string"
        }
      ],
      "name": "createAStore",
      "outputs": [],
      "stateMutability": "nonpayable",
      "type": "function"
    },
    {
      "inputs": [],
      "name": "getAllStore",
      "outputs": [
        {
          "components": [
            {
              "internalType": "address",
              "name": "owner",
              "type": "address"
            },
            {
              "internalType": "string",
              "name": "storeName",
              "type": "string"
            },
            {
              "internalType": "string",
              "name": "category",
              "type": "string"
            },
            {
              "internalType": "string",
              "name": "description",
              "type": "string"
            },
            {
              "internalType": "string",
              "name": "location",
              "type": "string"
            },
            {
              "internalType": "string",
              "name": "profileImg",
              "type": "string"
            },
            {
              "internalType": "string",
              "name": "coverImage",
              "type": "string"
            },
            {
              "internalType": "uint256",
              "name": "id",
              "type": "uint256"
            }
          ],
          "internalType": "struct Store.StoreData[]",
          "name": "",
          "type": "tuple[]"
        }
      ],
      "stateMutability": "view",
      "type": "function"
    },
    {
      "inputs": [],
      "name": "getAllStream",
      "outputs": [
        {
          "components": [
            {
              "internalType": "uint256",
              "name": "id",
              "type": "uint256"
            },
            {
              "internalType": "string",
              "name": "streamId",
              "type": "string"
            },
            {
              "internalType": "string",
              "name": "storeName",
              "type": "string"
            },
            {
              "internalType": "address",
              "name": "owner",
              "type": "address"
            },
            {
              "internalType": "string",
              "name": "storeImage",
              "type": "string"
            },
            {
              "internalType": "bool",
              "name": "isActive",
              "type": "bool"
            }
          ],
          "internalType": "struct Store.Stream[]",
          "name": "",
          "type": "tuple[]"
        }
      ],
      "stateMutability": "view",
      "type": "function"
    },
    {
      "inputs": [
        {
          "internalType": "address",
          "name": "_owner",
          "type": "address"
        }
      ],
      "name": "getStoreByAddress",
      "outputs": [
        {
          "components": [
            {
              "internalType": "address",
              "name": "owner",
              "type": "address"
            },
            {
              "internalType": "string",
              "name": "storeName",
              "type": "string"
            },
            {
              "internalType": "string",
              "name": "category",
              "type": "string"
            },
            {
              "internalType": "string",
              "name": "description",
              "type": "string"
            },
            {
              "internalType": "string",
              "name": "location",
              "type": "string"
            },
            {
              "internalType": "string",
              "name": "profileImg",
              "type": "string"
            },
            {
              "internalType": "string",
              "name": "coverImage",
              "type": "string"
            },
            {
              "internalType": "uint256",
              "name": "id",
              "type": "uint256"
            }
          ],
          "internalType": "struct Store.StoreData",
          "name": "",
          "type": "tuple"
        }
      ],
      "stateMutability": "view",
      "type": "function"
    },
    {
      "inputs": [
        {
          "internalType": "address",
          "name": "_owner",
          "type": "address"
        }
      ],
      "name": "retrieveStreamInfo",
      "outputs": [
        {
          "internalType": "bool",
          "name": "",
          "type": "bool"
        },
        {
          "internalType": "string",
          "name": "",
          "type": "string"
        },
        {
          "internalType": "string",
          "name": "",
          "type": "string"
        }
      ],
      "stateMutability": "view",
      "type": "function"
    },
    {
      "inputs": [
        {
          "internalType": "string",
          "name": "_callId",
          "type": "string"
        }
      ],
      "name": "startStream",
      "outputs": [],
      "stateMutability": "nonpayable",
      "type": "function"
    }
  ],
  "bytecode": "0x608060405234801561001057600080fd5b5061390c806100206000396000f3fe608060405234801561001057600080fd5b50600436106100b45760003560e01c806393cd5a1f1161007157806393cd5a1f146101c4578063b979b5fe146101e0578063bc0c8f6c146101fe578063e9a9e14414610235578063f3bae8d01461023f578063ff5c021714610271576100b4565b806343254636146100b95780635d39c071146100f05780635e9dc5331461010c5780636592f99a1461014157806366ee57911461015f578063732e924f1461018f575b600080fd5b6100d360048036038101906100ce91906128c2565b6102a6565b6040516100e79897969594939291906129a7565b60405180910390f35b61010a60048036038101906101059190612b84565b61063e565b005b61012660048036038101906101219190612bf9565b610b3b565b60405161013896959493929190612c54565b60405180910390f35b610149610d49565b6040516101569190612ec7565b60405180910390f35b610179600480360381019061017491906128c2565b611175565b6040516101869190612fbc565b60405180910390f35b6101a960048036038101906101a491906128c2565b61159b565b6040516101bb96959493929190612c54565b60405180910390f35b6101de60048036038101906101d99190612fde565b61179c565b005b6101e86119d0565b6040516101f5919061327b565b60405180910390f35b6102186004803603810190610213919061329d565b611c60565b60405161022c9897969594939291906129a7565b60405180910390f35b61023d612008565b005b610259600480360381019061025491906128c2565b6122c2565b604051610268939291906132ca565b60405180910390f35b61028b6004803603810190610286919061329d565b612563565b60405161029d96959493929190612c54565b60405180910390f35b60026020528060005260406000206000915090508060000160009054906101000a900473ffffffffffffffffffffffffffffffffffffffff16908060010180546102ef9061333e565b80601f016020809104026020016040519081016040528092919081815260200182805461031b9061333e565b80156103685780601f1061033d57610100808354040283529160200191610368565b820191906000526020600020905b81548152906001019060200180831161034b57829003601f168201915b50505050509080600201805461037d9061333e565b80601f01602080910402602001604051908101604052809291908181526020018280546103a99061333e565b80156103f65780601f106103cb576101008083540402835291602001916103f6565b820191906000526020600020905b8154815290600101906020018083116103d957829003601f168201915b50505050509080600301805461040b9061333e565b80601f01602080910402602001604051908101604052809291908181526020018280546104379061333e565b80156104845780601f1061045957610100808354040283529160200191610484565b820191906000526020600020905b81548152906001019060200180831161046757829003601f168201915b5050505050908060040180546104999061333e565b80601f01602080910402602001604051908101604052809291908181526020018280546104c59061333e565b80156105125780601f106104e757610100808354040283529160200191610512565b820191906000526020600020905b8154815290600101906020018083116104f557829003601f168201915b5050505050908060050180546105279061333e565b80601f01602080910402602001604051908101604052809291908181526020018280546105539061333e565b80156105a05780601f10610575576101008083540402835291602001916105a0565b820191906000526020600020905b81548152906001019060200180831161058357829003601f168201915b5050505050908060060180546105b59061333e565b80601f01602080910402602001604051908101604052809291908181526020018280546105e19061333e565b801561062e5780601f106106035761010080835404028352916020019161062e565b820191906000526020600020905b81548152906001019060200180831161061157829003601f168201915b5050505050908060070154905088565b600360003373ffffffffffffffffffffffffffffffffffffffff1673ffffffffffffffffffffffffffffffffffffffff16815260200190815260200160002060050160009054906101000a900460ff16156106ce576040517f08c379a00000000000000000000000000000000000000000000000000000000081526004016106c5906133bb565b60405180910390fd5b600073ffffffffffffffffffffffffffffffffffffffff163373ffffffffffffffffffffffffffffffffffffffff160361073d576040517f08c379a000000000000000000000000000000000000000000000000000000000815260040161073490613427565b60405180910390fd5b6107476001612774565b610751600161278a565b600360003373ffffffffffffffffffffffffffffffffffffffff1673ffffffffffffffffffffffffffffffffffffffff1681526020019081526020016000206000018190555080600360003373ffffffffffffffffffffffffffffffffffffffff1673ffffffffffffffffffffffffffffffffffffffff16815260200190815260200160002060010190816107e691906135f3565b506001600360003373ffffffffffffffffffffffffffffffffffffffff1673ffffffffffffffffffffffffffffffffffffffff16815260200190815260200160002060050160006101000a81548160ff021916908315150217905550600260003373ffffffffffffffffffffffffffffffffffffffff1673ffffffffffffffffffffffffffffffffffffffff168152602001908152602001600020600101600360003373ffffffffffffffffffffffffffffffffffffffff1673ffffffffffffffffffffffffffffffffffffffff16815260200190815260200160002060020190816108d291906136f0565b5033600360003373ffffffffffffffffffffffffffffffffffffffff1673ffffffffffffffffffffffffffffffffffffffff16815260200190815260200160002060030160006101000a81548173ffffffffffffffffffffffffffffffffffffffff021916908373ffffffffffffffffffffffffffffffffffffffff160217905550600260003373ffffffffffffffffffffffffffffffffffffffff1673ffffffffffffffffffffffffffffffffffffffff168152602001908152602001600020600501600360003373ffffffffffffffffffffffffffffffffffffffff1673ffffffffffffffffffffffffffffffffffffffff16815260200190815260200160002060040190816109e491906136f0565b506006600360003373ffffffffffffffffffffffffffffffffffffffff1673ffffffffffffffffffffffffffffffffffffffff16815260200190815260200160002090806001815401808255809150506001900390600052602060002090600602016000909190919091506000820154816000015560018201816001019081610a6d91906137ee565b5060028201816002019081610a8291906137ee565b506003820160009054906101000a900473ffffffffffffffffffffffffffffffffffffffff168160030160006101000a81548173ffffffffffffffffffffffffffffffffffffffff021916908373ffffffffffffffffffffffffffffffffffffffff16021790555060048201816004019081610afe91906137ee565b506005820160009054906101000a900460ff168160050160006101000a81548160ff0219169083151502179055505050610b386001612774565b50565b600460205281600052604060002060205280600052604060002060009150915050806000015490806001018054610b719061333e565b80601f0160208091040260200160405190810160405280929190818152602001828054610b9d9061333e565b8015610bea5780601f10610bbf57610100808354040283529160200191610bea565b820191906000526020600020905b815481529060010190602001808311610bcd57829003601f168201915b505050505090806002018054610bff9061333e565b80601f0160208091040260200160405190810160405280929190818152602001828054610c2b9061333e565b8015610c785780601f10610c4d57610100808354040283529160200191610c78565b820191906000526020600020905b815481529060010190602001808311610c5b57829003601f168201915b5050505050908060030160009054906101000a900473ffffffffffffffffffffffffffffffffffffffff1690806004018054610cb39061333e565b80601f0160208091040260200160405190810160405280929190818152602001828054610cdf9061333e565b8015610d2c5780601f10610d0157610100808354040283529160200191610d2c565b820191906000526020600020905b815481529060010190602001808311610d0f57829003601f168201915b5050505050908060050160009054906101000a900460ff16905086565b60606005805480602002602001604051908101604052809291908181526020016000905b8282101561116c5783829060005260206000209060080201604051806101000160405290816000820160009054906101000a900473ffffffffffffffffffffffffffffffffffffffff1673ffffffffffffffffffffffffffffffffffffffff1673ffffffffffffffffffffffffffffffffffffffff168152602001600182018054610df79061333e565b80601f0160208091040260200160405190810160405280929190818152602001828054610e239061333e565b8015610e705780601f10610e4557610100808354040283529160200191610e70565b820191906000526020600020905b815481529060010190602001808311610e5357829003601f168201915b50505050508152602001600282018054610e899061333e565b80601f0160208091040260200160405190810160405280929190818152602001828054610eb59061333e565b8015610f025780601f10610ed757610100808354040283529160200191610f02565b820191906000526020600020905b815481529060010190602001808311610ee557829003601f168201915b50505050508152602001600382018054610f1b9061333e565b80601f0160208091040260200160405190810160405280929190818152602001828054610f479061333e565b8015610f945780601f10610f6957610100808354040283529160200191610f94565b820191906000526020600020905b815481529060010190602001808311610f7757829003601f168201915b50505050508152602001600482018054610fad9061333e565b80601f0160208091040260200160405190810160405280929190818152602001828054610fd99061333e565b80156110265780601f10610ffb57610100808354040283529160200191611026565b820191906000526020600020905b81548152906001019060200180831161100957829003601f168201915b5050505050815260200160058201805461103f9061333e565b80601f016020809104026020016040519081016040528092919081815260200182805461106b9061333e565b80156110b85780601f1061108d576101008083540402835291602001916110b8565b820191906000526020600020905b81548152906001019060200180831161109b57829003601f168201915b505050505081526020016006820180546110d19061333e565b80601f01602080910402602001604051908101604052809291908181526020018280546110fd9061333e565b801561114a5780601f1061111f5761010080835404028352916020019161114a565b820191906000526020600020905b81548152906001019060200180831161112d57829003601f168201915b5050505050815260200160078201548152505081526020019060010190610d6d565b50505050905090565b61117d612798565b600260008373ffffffffffffffffffffffffffffffffffffffff1673ffffffffffffffffffffffffffffffffffffffff168152602001908152602001600020604051806101000160405290816000820160009054906101000a900473ffffffffffffffffffffffffffffffffffffffff1673ffffffffffffffffffffffffffffffffffffffff1673ffffffffffffffffffffffffffffffffffffffff16815260200160018201805461122e9061333e565b80601f016020809104026020016040519081016040528092919081815260200182805461125a9061333e565b80156112a75780601f1061127c576101008083540402835291602001916112a7565b820191906000526020600020905b81548152906001019060200180831161128a57829003601f168201915b505050505081526020016002820180546112c09061333e565b80601f01602080910402602001604051908101604052809291908181526020018280546112ec9061333e565b80156113395780601f1061130e57610100808354040283529160200191611339565b820191906000526020600020905b81548152906001019060200180831161131c57829003601f168201915b505050505081526020016003820180546113529061333e565b80601f016020809104026020016040519081016040528092919081815260200182805461137e9061333e565b80156113cb5780601f106113a0576101008083540402835291602001916113cb565b820191906000526020600020905b8154815290600101906020018083116113ae57829003601f168201915b505050505081526020016004820180546113e49061333e565b80601f01602080910402602001604051908101604052809291908181526020018280546114109061333e565b801561145d5780601f106114325761010080835404028352916020019161145d565b820191906000526020600020905b81548152906001019060200180831161144057829003601f168201915b505050505081526020016005820180546114769061333e565b80601f01602080910402602001604051908101604052809291908181526020018280546114a29061333e565b80156114ef5780601f106114c4576101008083540402835291602001916114ef565b820191906000526020600020905b8154815290600101906020018083116114d257829003601f168201915b505050505081526020016006820180546115089061333e565b80601f01602080910402602001604051908101604052809291908181526020018280546115349061333e565b80156115815780601f1061155657610100808354040283529160200191611581565b820191906000526020600020905b81548152906001019060200180831161156457829003601f168201915b505050505081526020016007820154815250509050919050565b60036020528060005260406000206000915090508060000154908060010180546115c49061333e565b80601f01602080910402602001604051908101604052809291908181526020018280546115f09061333e565b801561163d5780601f106116125761010080835404028352916020019161163d565b820191906000526020600020905b81548152906001019060200180831161162057829003601f168201915b5050505050908060020180546116529061333e565b80601f016020809104026020016040519081016040528092919081815260200182805461167e9061333e565b80156116cb5780601f106116a0576101008083540402835291602001916116cb565b820191906000526020600020905b8154815290600101906020018083116116ae57829003601f168201915b5050505050908060030160009054906101000a900473ffffffffffffffffffffffffffffffffffffffff16908060040180546117069061333e565b80601f01602080910402602001604051908101604052809291908181526020018280546117329061333e565b801561177f5780601f106117545761010080835404028352916020019161177f565b820191906000526020600020905b81548152906001019060200180831161176257829003601f168201915b5050505050908060050160009054906101000a900460ff16905086565b6117a66000612774565b6000600260003373ffffffffffffffffffffffffffffffffffffffff1673ffffffffffffffffffffffffffffffffffffffff1681526020019081526020016000209050868160010190816117fa91906135f3565b50338160000160006101000a81548173ffffffffffffffffffffffffffffffffffffffff021916908373ffffffffffffffffffffffffffffffffffffffff1602179055508581600201908161184f91906135f3565b508481600301908161186191906135f3565b508381600401908161187391906135f3565b5061187e600061278a565b81600701819055508181600601908161189791906135f3565b50828160050190816118a991906135f3565b5060058190806001815401808255809150506001900390600052602060002090600802016000909190919091506000820160009054906101000a900473ffffffffffffffffffffffffffffffffffffffff168160000160006101000a81548173ffffffffffffffffffffffffffffffffffffffff021916908373ffffffffffffffffffffffffffffffffffffffff1602179055506001820181600101908161195191906137ee565b506002820181600201908161196691906137ee565b506003820181600301908161197b91906137ee565b506004820181600401908161199091906137ee565b50600582018160050190816119a591906137ee565b50600682018160060190816119ba91906137ee565b5060078201548160070155505050505050505050565b60606006805480602002602001604051908101604052809291908181526020016000905b82821015611c5757838290600052602060002090600602016040518060c001604052908160008201548152602001600182018054611a319061333e565b80601f0160208091040260200160405190810160405280929190818152602001828054611a5d9061333e565b8015611aaa5780601f10611a7f57610100808354040283529160200191611aaa565b820191906000526020600020905b815481529060010190602001808311611a8d57829003601f168201915b50505050508152602001600282018054611ac39061333e565b80601f0160208091040260200160405190810160405280929190818152602001828054611aef9061333e565b8015611b3c5780601f10611b1157610100808354040283529160200191611b3c565b820191906000526020600020905b815481529060010190602001808311611b1f57829003601f168201915b505050505081526020016003820160009054906101000a900473ffffffffffffffffffffffffffffffffffffffff1673ffffffffffffffffffffffffffffffffffffffff1673ffffffffffffffffffffffffffffffffffffffff168152602001600482018054611bab9061333e565b80601f0160208091040260200160405190810160405280929190818152602001828054611bd79061333e565b8015611c245780601f10611bf957610100808354040283529160200191611c24565b820191906000526020600020905b815481529060010190602001808311611c0757829003601f168201915b505050505081526020016005820160009054906101000a900460ff161515151581525050815260200190600101906119f4565b50505050905090565b60058181548110611c7057600080fd5b90600052602060002090600802016000915090508060000160009054906101000a900473ffffffffffffffffffffffffffffffffffffffff1690806001018054611cb99061333e565b80601f0160208091040260200160405190810160405280929190818152602001828054611ce59061333e565b8015611d325780601f10611d0757610100808354040283529160200191611d32565b820191906000526020600020905b815481529060010190602001808311611d1557829003601f168201915b505050505090806002018054611d479061333e565b80601f0160208091040260200160405190810160405280929190818152602001828054611d739061333e565b8015611dc05780601f10611d9557610100808354040283529160200191611dc0565b820191906000526020600020905b815481529060010190602001808311611da357829003601f168201915b505050505090806003018054611dd59061333e565b80601f0160208091040260200160405190810160405280929190818152602001828054611e019061333e565b8015611e4e5780601f10611e2357610100808354040283529160200191611e4e565b820191906000526020600020905b815481529060010190602001808311611e3157829003601f168201915b505050505090806004018054611e639061333e565b80601f0160208091040260200160405190810160405280929190818152602001828054611e8f9061333e565b8015611edc5780601f10611eb157610100808354040283529160200191611edc565b820191906000526020600020905b815481529060010190602001808311611ebf57829003601f168201915b505050505090806005018054611ef19061333e565b80601f0160208091040260200160405190810160405280929190818152602001828054611f1d9061333e565b8015611f6a5780601f10611f3f57610100808354040283529160200191611f6a565b820191906000526020600020905b815481529060010190602001808311611f4d57829003601f168201915b505050505090806006018054611f7f9061333e565b80601f0160208091040260200160405190810160405280929190818152602001828054611fab9061333e565b8015611ff85780601f10611fcd57610100808354040283529160200191611ff8565b820191906000526020600020905b815481529060010190602001808311611fdb57829003601f168201915b5050505050908060070154905088565b6000600360003373ffffffffffffffffffffffffffffffffffffffff1673ffffffffffffffffffffffffffffffffffffffff16815260200190815260200160002060050160006101000a81548160ff02191690831515021790555060405180602001604052806000815250600360003373ffffffffffffffffffffffffffffffffffffffff1673ffffffffffffffffffffffffffffffffffffffff16815260200190815260200160002060010190816120c191906135f3565b506006600360003373ffffffffffffffffffffffffffffffffffffffff1673ffffffffffffffffffffffffffffffffffffffff1681526020019081526020016000209080600181540180825580915050600190039060005260206000209060060201600090919091909150600082015481600001556001820181600101908161214a91906137ee565b506002820181600201908161215f91906137ee565b506003820160009054906101000a900473ffffffffffffffffffffffffffffffffffffffff168160030160006101000a81548173ffffffffffffffffffffffffffffffffffffffff021916908373ffffffffffffffffffffffffffffffffffffffff160217905550600482018160040190816121db91906137ee565b506005820160009054906101000a900460ff168160050160006101000a81548160ff0219169083151502179055505050600360003373ffffffffffffffffffffffffffffffffffffffff1673ffffffffffffffffffffffffffffffffffffffff16815260200190815260200160002060008082016000905560018201600061226391906127f3565b60028201600061227391906127f3565b6003820160006101000a81549073ffffffffffffffffffffffffffffffffffffffff02191690556004820160006122aa91906127f3565b6005820160006101000a81549060ff02191690555050565b60006060806000600360008673ffffffffffffffffffffffffffffffffffffffff1673ffffffffffffffffffffffffffffffffffffffff1681526020019081526020016000206040518060c00160405290816000820154815260200160018201805461232d9061333e565b80601f01602080910402602001604051908101604052809291908181526020018280546123599061333e565b80156123a65780601f1061237b576101008083540402835291602001916123a6565b820191906000526020600020905b81548152906001019060200180831161238957829003601f168201915b505050505081526020016002820180546123bf9061333e565b80601f01602080910402602001604051908101604052809291908181526020018280546123eb9061333e565b80156124385780601f1061240d57610100808354040283529160200191612438565b820191906000526020600020905b81548152906001019060200180831161241b57829003601f168201915b505050505081526020016003820160009054906101000a900473ffffffffffffffffffffffffffffffffffffffff1673ffffffffffffffffffffffffffffffffffffffff1673ffffffffffffffffffffffffffffffffffffffff1681526020016004820180546124a79061333e565b80601f01602080910402602001604051908101604052809291908181526020018280546124d39061333e565b80156125205780601f106124f557610100808354040283529160200191612520565b820191906000526020600020905b81548152906001019060200180831161250357829003601f168201915b505050505081526020016005820160009054906101000a900460ff16151515158152505090508060a0015181602001518260400151935093509350509193909250565b6006818154811061257357600080fd5b906000526020600020906006020160009150905080600001549080600101805461259c9061333e565b80601f01602080910402602001604051908101604052809291908181526020018280546125c89061333e565b80156126155780601f106125ea57610100808354040283529160200191612615565b820191906000526020600020905b8154815290600101906020018083116125f857829003601f168201915b50505050509080600201805461262a9061333e565b80601f01602080910402602001604051908101604052809291908181526020018280546126569061333e565b80156126a35780601f10612678576101008083540402835291602001916126a3565b820191906000526020600020905b81548152906001019060200180831161268657829003601f168201915b5050505050908060030160009054906101000a900473ffffffffffffffffffffffffffffffffffffffff16908060040180546126de9061333e565b80601f016020809104026020016040519081016040528092919081815260200182805461270a9061333e565b80156127575780601f1061272c57610100808354040283529160200191612757565b820191906000526020600020905b81548152906001019060200180831161273a57829003601f168201915b5050505050908060050160009054906101000a900460ff16905086565b6001816000016000828254019250508190555050565b600081600001549050919050565b604051806101000160405280600073ffffffffffffffffffffffffffffffffffffffff168152602001606081526020016060815260200160608152602001606081526020016060815260200160608152602001600081525090565b5080546127ff9061333e565b6000825580601f106128115750612830565b601f01602090049060005260206000209081019061282f9190612833565b5b50565b5b8082111561284c576000816000905550600101612834565b5090565b6000604051905090565b600080fd5b600080fd5b600073ffffffffffffffffffffffffffffffffffffffff82169050919050565b600061288f82612864565b9050919050565b61289f81612884565b81146128aa57600080fd5b50565b6000813590506128bc81612896565b92915050565b6000602082840312156128d8576128d761285a565b5b60006128e6848285016128ad565b91505092915050565b6128f881612884565b82525050565b600081519050919050565b600082825260208201905092915050565b60005b8381101561293857808201518184015260208101905061291d565b60008484015250505050565b6000601f19601f8301169050919050565b6000612960826128fe565b61296a8185612909565b935061297a81856020860161291a565b61298381612944565b840191505092915050565b6000819050919050565b6129a18161298e565b82525050565b6000610100820190506129bd600083018b6128ef565b81810360208301526129cf818a612955565b905081810360408301526129e38189612955565b905081810360608301526129f78188612955565b90508181036080830152612a0b8187612955565b905081810360a0830152612a1f8186612955565b905081810360c0830152612a338185612955565b9050612a4260e0830184612998565b9998505050505050505050565b600080fd5b600080fd5b7f4e487b7100000000000000000000000000000000000000000000000000000000600052604160045260246000fd5b612a9182612944565b810181811067ffffffffffffffff82111715612ab057612aaf612a59565b5b80604052505050565b6000612ac3612850565b9050612acf8282612a88565b919050565b600067ffffffffffffffff821115612aef57612aee612a59565b5b612af882612944565b9050602081019050919050565b82818337600083830152505050565b6000612b27612b2284612ad4565b612ab9565b905082815260208101848484011115612b4357612b42612a54565b5b612b4e848285612b05565b509392505050565b600082601f830112612b6b57612b6a612a4f565b5b8135612b7b848260208601612b14565b91505092915050565b600060208284031215612b9a57612b9961285a565b5b600082013567ffffffffffffffff811115612bb857612bb761285f565b5b612bc484828501612b56565b91505092915050565b612bd68161298e565b8114612be157600080fd5b50565b600081359050612bf381612bcd565b92915050565b60008060408385031215612c1057612c0f61285a565b5b6000612c1e858286016128ad565b9250506020612c2f85828601612be4565b9150509250929050565b60008115159050919050565b612c4e81612c39565b82525050565b600060c082019050612c696000830189612998565b8181036020830152612c7b8188612955565b90508181036040830152612c8f8187612955565b9050612c9e60608301866128ef565b8181036080830152612cb08185612955565b9050612cbf60a0830184612c45565b979650505050505050565b600081519050919050565b600082825260208201905092915050565b6000819050602082019050919050565b612cff81612884565b82525050565b600082825260208201905092915050565b6000612d21826128fe565b612d2b8185612d05565b9350612d3b81856020860161291a565b612d4481612944565b840191505092915050565b612d588161298e565b82525050565b600061010083016000830151612d776000860182612cf6565b5060208301518482036020860152612d8f8282612d16565b91505060408301518482036040860152612da98282612d16565b91505060608301518482036060860152612dc38282612d16565b91505060808301518482036080860152612ddd8282612d16565b91505060a083015184820360a0860152612df78282612d16565b91505060c083015184820360c0860152612e118282612d16565b91505060e0830151612e2660e0860182612d4f565b508091505092915050565b6000612e3d8383612d5e565b905092915050565b6000602082019050919050565b6000612e5d82612cca565b612e678185612cd5565b935083602082028501612e7985612ce6565b8060005b85811015612eb55784840389528151612e968582612e31565b9450612ea183612e45565b925060208a01995050600181019050612e7d565b50829750879550505050505092915050565b60006020820190508181036000830152612ee18184612e52565b905092915050565b600061010083016000830151612f026000860182612cf6565b5060208301518482036020860152612f1a8282612d16565b91505060408301518482036040860152612f348282612d16565b91505060608301518482036060860152612f4e8282612d16565b91505060808301518482036080860152612f688282612d16565b91505060a083015184820360a0860152612f828282612d16565b91505060c083015184820360c0860152612f9c8282612d16565b91505060e0830151612fb160e0860182612d4f565b508091505092915050565b60006020820190508181036000830152612fd68184612ee9565b905092915050565b60008060008060008060c08789031215612ffb57612ffa61285a565b5b600087013567ffffffffffffffff8111156130195761301861285f565b5b61302589828a01612b56565b965050602087013567ffffffffffffffff8111156130465761304561285f565b5b61305289828a01612b56565b955050604087013567ffffffffffffffff8111156130735761307261285f565b5b61307f89828a01612b56565b945050606087013567ffffffffffffffff8111156130a05761309f61285f565b5b6130ac89828a01612b56565b935050608087013567ffffffffffffffff8111156130cd576130cc61285f565b5b6130d989828a01612b56565b92505060a087013567ffffffffffffffff8111156130fa576130f961285f565b5b61310689828a01612b56565b9150509295509295509295565b600081519050919050565b600082825260208201905092915050565b6000819050602082019050919050565b61314881612c39565b82525050565b600060c0830160008301516131666000860182612d4f565b506020830151848203602086015261317e8282612d16565b915050604083015184820360408601526131988282612d16565b91505060608301516131ad6060860182612cf6565b50608083015184820360808601526131c58282612d16565b91505060a08301516131da60a086018261313f565b508091505092915050565b60006131f1838361314e565b905092915050565b6000602082019050919050565b600061321182613113565b61321b818561311e565b93508360208202850161322d8561312f565b8060005b85811015613269578484038952815161324a85826131e5565b9450613255836131f9565b925060208a01995050600181019050613231565b50829750879550505050505092915050565b600060208201905081810360008301526132958184613206565b905092915050565b6000602082840312156132b3576132b261285a565b5b60006132c184828501612be4565b91505092915050565b60006060820190506132df6000830186612c45565b81810360208301526132f18185612955565b905081810360408301526133058184612955565b9050949350505050565b7f4e487b7100000000000000000000000000000000000000000000000000000000600052602260045260246000fd5b6000600282049050600182168061335657607f821691505b6020821081036133695761336861330f565b5b50919050565b7f596f752061726520616c72656164792061637469766500000000000000000000600082015250565b60006133a5601683612909565b91506133b08261336f565b602082019050919050565b600060208201905081810360008301526133d481613398565b9050919050565b7f416464726573732063616e6e6f74206265207a65726f00000000000000000000600082015250565b6000613411601683612909565b915061341c826133db565b602082019050919050565b6000602082019050818103600083015261344081613404565b9050919050565b60008190508160005260206000209050919050565b60006020601f8301049050919050565b600082821b905092915050565b6000600883026134a97fffffffffffffffffffffffffffffffffffffffffffffffffffffffffffffffff8261346c565b6134b3868361346c565b95508019841693508086168417925050509392505050565b6000819050919050565b60006134f06134eb6134e68461298e565b6134cb565b61298e565b9050919050565b6000819050919050565b61350a836134d5565b61351e613516826134f7565b848454613479565b825550505050565b600090565b613533613526565b61353e818484613501565b505050565b5b818110156135625761355760008261352b565b600181019050613544565b5050565b601f8211156135a75761357881613447565b6135818461345c565b81016020851015613590578190505b6135a461359c8561345c565b830182613543565b50505b505050565b600082821c905092915050565b60006135ca600019846008026135ac565b1980831691505092915050565b60006135e383836135b9565b9150826002028217905092915050565b6135fc826128fe565b67ffffffffffffffff81111561361557613614612a59565b5b61361f825461333e565b61362a828285613566565b600060209050601f83116001811461365d576000841561364b578287015190505b61365585826135d7565b8655506136bd565b601f19841661366b86613447565b60005b828110156136935784890151825560018201915060208501945060208101905061366e565b868310156136b057848901516136ac601f8916826135b9565b8355505b6001600288020188555050505b505050505050565b6000815490506136d48161333e565b9050919050565b60008190508160005260206000209050919050565b8181036136fe5750506137d6565b613707826136c5565b67ffffffffffffffff8111156137205761371f612a59565b5b61372a825461333e565b613735828285613566565b6000601f8311600181146137645760008415613752578287015490505b61375c85826135d7565b8655506137cf565b601f198416613772876136db565b965061377d86613447565b60005b828110156137a557848901548255600182019150600185019450602081019050613780565b868310156137c257848901546137be601f8916826135b9565b8355505b6001600288020188555050505b5050505050505b565b6000815490506137e78161333e565b9050919050565b8181036137fc5750506138d4565b613805826137d8565b67ffffffffffffffff81111561381e5761381d612a59565b5b613828825461333e565b613833828285613566565b6000601f8311600181146138625760008415613850578287015490505b61385a85826135d7565b8655506138cd565b601f19841661387087613447565b965061387b86613447565b60005b828110156138a35784890154825560018201915060018501945060208101905061387e565b868310156138c057848901546138bc601f8916826135b9565b8355505b6001600288020188555050505b5050505050505b56fea2646970667358221220bc137a5c4274c126612bfd8269c588f7eb958755ba4600eb9a3c68e08ad12deb64736f6c63430008120033",
  "linkReferences": {},
  "deployedLinkReferences": {}
}